:100000000C94DB000C9403010C9403010C94030189
:100010000C9403010C9403010C9403010C94030150
:100020000C9403010C9403010C9403010C94030140
:100030000C9403010C9403010C9403010C94030130
:100040000C94BE030C9403010C94D5010C94AF01E5
:100050000C9403010C9403010C9403010C94030110
:100060000C9408040C94030100407A10F35A00A089
:10007000724E18090010A5D4E80000E87648170071
:1000800000E40B54020000CA9A3B000000E1F505B1
:10009000000080969800000040420F000000A086FB
:1000A00001000000102700000000E803000000002D
:1000B0006400000000000A000000000001000000D1
:1000C00000002C76D888DC674F0823DFC1DFAE59EB
:1000D000E1B1B796E5E3E453C63AE651997696E87E
:1000E000E6C28426EB898C9B62ED407C6FFCEFBC02
:1000F0009C9F40F2BAA56FA5F490055A2AF75C932D
:100100006B6CF9676DC11BFCE0E40D47FEF520E662
:10011000B500D0ED902E0300943577050080841E45
:10012000080000204E0A000000C80C333333330FA0
:10013000986E12831141EF8D2114893BE65516CF3D
:10014000FEE6DB18D1844B381BF77C1D901DA4BB49
:10015000E424203284725E228100C9F124ECA1E5FE
:100160003D270000000023002600290000000000B9
:10017000250028002B0004040404040404040202E3
:100180000202020203030303030301020408102016
:100190004080010204081020010204081020000021
:1001A0000008000201000003040700000000000036
:1001B0000000C20DB60D11241FBECFEFD8E0DEBF88
:1001C000CDBF24E0A0E1B3E001C01D92A43AB20784
:1001D000E1F713E0A0E0B1E0ECE5FAE202C005903F
:1001E0000D92A031B107D9F710E0CAEDD0E004C0FC
:1001F0002197FE010E941F13C93DD107C9F70E9434
:10020000B3090C9421150C940000FC01538D448D0E
:10021000252F30E0842F90E0821B930B541710F0B1
:10022000CF96089501970895FC01918D828D9817BE
:1002300061F0828DDF01A80FB11D5D968C91928DCA
:100240009F5F9F73928F90E008958FEF9FEF0895C7
:10025000FC01918D828D981731F0828DE80FF11D90
:10026000858D90E008958FEF9FEF089589ED93E0DD
:100270000E94070221E0892B09F420E0822F0895D3
:10028000EF92FF920F931F93CF93DF93EC0181E0E6
:10029000888F9B8D8C8D981305C0E889F9898081A2
:1002A00085FD26C0F62E0B8D10E00F5F1F4F0F73DC
:1002B0001127E02E8C8DE8120CC00FB607FCFACF88
:1002C000E889F989808185FFF5CFCE010E9404037A
:1002D000F1CF8B8DFE01E80FF11DE35AFF4FF08245
:1002E0009FB7F8940B8FEA89FB89808180620AC0EE
:1002F0009FB7F894EE89FF896083E889F989808146
:100300008370806480839FBF81E090E0DF91CF9114
:100310001F910F91FF90EF900895CF93DF93EC0121
:10032000888D8823C9F0EA89FB89808185FD05C015
:10033000A889B9898C9186FD0FC00FB607FCF5CF4F
:10034000808185FFF2CFA889B9898C9185FFEDCF97
:10035000CE010E940403E7CFDF91CF9108951F9251
:100360000F920FB60F9211242F933F934F935F93E9
:100370006F937F938F939F93AF93BF93EF93FF936D
:1003800089ED93E00E940403FF91EF91BF91AF913B
:100390009F918F917F916F915F914F913F912F919D
:1003A0000F900FBE0F901F9018951F920F920FB6CF
:1003B0000F9211242F938F939F93EF93FF93E091CC
:1003C000E903F091EA038081E091EF03F091F003FB
:1003D00082FD12C090818091F2038F5F8F73209114
:1003E000F303821751F0E091F203F0E0E752FC4F83
:1003F000958F8093F20301C08081FF91EF919F91CF
:100400008F912F910F900FBE0F901F901895FC01A8
:10041000918D228D892F90E0805C9F4F821B9109E6
:100420008F739927089580E090E0892B29F00E942E
:10043000360181110C94000008953FB7F894809123
:10044000D5039091D603A091D703B091D80326B5D8
:10045000A89B05C02F3F19F00196A11DB11D3FBFFC
:10046000BA2FA92F982F8827820F911DA11DB11D8A
:10047000BC01CD0142E0660F771F881F991F4A9586
:10048000D1F7089585ED8093BC008091BC0084FD78
:10049000FCCF10921603089540918903262F30E077
:1004A000240F311D21323105DCF420911603243054
:1004B000C9F4FC0180E090E0861758F4309189037C
:1004C0002191DC01A759BC4FA30FB11D2C930196BC
:1004D000F3CF80918903680F6093890380E00895CA
:1004E00081E0089582E00895089508950895E091C7
:1004F0001A0380911903E81730F4F0E0E75BFC4F32
:10050000808190E008958FEF9FEF089590911A03F6
:1005100080911903981750F4E92FF0E0E75BFC4F46
:10052000208130E09F5F90931A0302C02FEF3FEFCE
:10053000C90108958091190390E020911A03821B4C
:1005400091090895CF92DF92EF92FF920F931F933C
:10055000CF93DF937C01CB018A01209148032223B2
:1005600089F0EB016B01C40ED51ECC15DD0569F0D9
:100570006991D701ED91FC910190F081E02DC701C7
:100580000995F3CF642F0E944C02C801DF91CF91EF
:100590001F910F91FF90EF90DF90CF900895CF9330
:1005A000DF931F92CDB7DEB76983209148032223E2
:1005B000D1F020911703203240F021E030E0FC011F
:1005C0003383228380E090E015C080911803E82FE8
:1005D000F0E0E85DFC4F998190838F5F8093180372
:1005E0008093170305C061E0CE0101960E944C0282
:1005F00081E090E00F90DF91CF910895089580E021
:1006000090E008950E940C15FC01848DDF01A80F75
:10061000B11DA35ABF4F2C91848D90E001968F732A
:100620009927848FA689B7892C93A089B1898C9149
:10063000837080648C93938D848D981306C0028898
:10064000F389E02D80818F7D80830895833081F050
:1006500028F4813099F08230A1F008958730A9F014
:100660008830B9F08430D1F4809180008F7D03C050
:10067000809180008F7780938000089584B58F7774
:1006800002C084B58F7D84BD08958091B0008F77BE
:1006900003C08091B0008F7D8093B0000895CF9308
:1006A000DF93282F30E0F901E256FE4F8491F901E3
:1006B000E657FE4FD491F901EA58FE4FC491CC237E
:1006C00091F081110E942603EC2FF0E0EE0FFF1F46
:1006D000EE59FE4FA591B491EC91ED2381E090E0AD
:1006E00021F480E002C080E090E0DF91CF91089596
:1006F0008F929F92AF92BF92CF92DF92EF92FF9232
:100700006B017C010E941D024B015C01C114D104EC
:10071000E104F104F1F00E941D02DC01CB01881913
:100720009909AA09BB09883E9340A105B10570F358
:1007300021E0C21AD108E108F10888EE880E83E0B2
:10074000981EA11CB11CC114D104E104F10419F7D5
:10075000DDCFFF90EF90DF90CF90BF90AF909F9054
:100760008F9008952FB7F8946091D1037091D203C0
:100770008091D3039091D4032FBF08951F920F92BD
:100780000FB60F9211242F933F938F939F93AF93A4
:10079000BF938091D1039091D203A091D303B091E4
:1007A000D4033091D00323E0230F2D3720F401969A
:1007B000A11DB11D05C026E8230F0296A11DB11D84
:1007C0002093D0038093D1039093D203A093D303BB
:1007D000B093D4038091D5039091D603A091D70311
:1007E000B091D8030196A11DB11D8093D5039093BC
:1007F000D603A093D703B093D803BF91AF919F9135
:100800008F913F912F910F900FBE0F901F901895D1
:100810001F920F920FB60F9211242F933F934F9375
:100820005F936F937F938F939F93AF93BF93EF9358
:10083000FF938091B900887F803609F49CC068F5E9
:10084000883209F45BC090F4803109F454C038F464
:10085000882309F4F6C0883009F44DC0F6C0883109
:1008600009F44CC0803209F45DC0EFC0803409F453
:1008700068C048F4803309F455C0883309F0E5C0F6
:100880008093AC03D8C0803509F44FC0883509F493
:100890005DC0883409F0D9C0D6C0883909F4C7C012
:1008A000A8F4883709F467C038F4883609F463C0BF
:1008B000803709F460C0C9C0883809F4B8C08039ED
:1008C00009F45FC0803809F0C0C05BC0803B09F408
:1008D00086C038F4803A09F466C0883A09F47FC0CB
:1008E000B4C0803C09F4A7C0883C09F4A4C0883B8C
:1008F00009F48AC0AAC08091CF0310C09091CE03A2
:100900008091CD03981770F5E091CE0381E08E0FB2
:100910008093CE03F0E0E355FC4F80818093BB00D1
:1009200085EC86C08093AC038EC0E091CE0381E05D
:100930008E0F8093CE038091BB00F0E0E355FC4F17
:1009400080839091CE038091CD036EC0E091CE0361
:1009500081E08E0F8093CE038091BB00F0E0E355E1
:10096000FC4F80838091150381116DC081E08093DD
:10097000140384EA61C083E0809316031092AB03F2
:10098000CFCF8091AB03803208F051C0E091AB0330
:1009900081E08E0F8093AB038091BB00F0E0E557C0
:1009A000FC4F8083BDCF85EC8093BC001092160372
:1009B0008091AB03803230F4E091AB03F0E0E55777
:1009C000FC4F10826091AB0370E0E0911003F09156
:1009D00011038BE893E009951092AB0336C084E0D5
:1009E0008093160310928A0310928903E0911203F8
:1009F000F0911303099580918903811105C081E06D
:100A00008093890310926903E0918A0381E08E0F3D
:100A100080938A03F0E0E759FC4F80818093BB000C
:100A200090918A0380918903981708F479CF85E81B
:100A30008093BC000AC085EC8093BC001092160322
:100A400004C01092AC030E944202FF91EF91BF914B
:100A5000AF919F918F917F916F915F914F913F9156
:100A60002F910F900FBE0F901F901895CF93FC0100
:100A7000C48121E020934803C093270310921803F8
:100A8000109217038385682B86E794E00E94CF02BB
:100A900090911703913208F045C08091160381119F
:100AA000FCCF82E08093160381E0809315038FEFE3
:100AB0008093AC031092CE039093CD03A8E2B3E0F1
:100AC000EDEAF3E080E0981721F02D9121938F5FFC
:100AD000FACF1092CF038091CF03CC0FC82BC093D5
:100AE000CF0380911403813061F41092140380913C
:100AF000CF038093BB008091BC0083FDF8CF85ECD1
:100B000001C085EE8093BC00809116038230E1F332
:100B10008091AC038F3F31F08091AC03803211F0B3
:100B20008091AC031092180310921703109248039F
:100B3000CF9108950F931F93CF938C01C62F0E94DE
:100B400036056C2F6460C8010E9436056C2F6B7FE0
:100B5000C8010E94360583EC90E00197F1F7CF9130
:100B60001F910F9108950F931F93CF93DF938C01E3
:100B7000C62FD42F607F642B0E949A0580E1C89F06
:100B8000B00111246D2BC801DF91CF911F910F91FE
:100B90000C949A0541E00E94B30581E090E008952D
:100BA0000F931F9384E00E944F030197A9F40E94C2
:100BB000B203009123031091240320912503309167
:100BC0002603DC01CB01801B910BA20BB30B843FEE
:100BD0009140A105B10510F480E00FC081E992E0D9
:100BE0000E944A080E94B203609323037093240377
:100BF000809325039093260381E01F910F91089520
:100C00000F931F9383E00E944F030197A9F40E9462
:100C1000B2030091210310912203012E000C220B3C
:100C2000330BDC01CB01801B910BA20BB30B843F78
:100C30009140A105B10510F480E00BC08FEA92E06D
:100C40000E944A080E94B20370932203609321031A
:100C500081E01F910F9108950F931F9382E00E94EE
:100C60004F030197A9F40E94B20300911F03109152
:100C70002003012E000C220B330BDC01CB01801B67
:100C8000910BA20BB30B843F9140A105B10510F469
:100C900080E00BC086EC92E00E944A080E94B203FA
:100CA0007093200360931F0381E01F910F910895BB
:100CB000CF93DF9300D000D000D0CDB7DEB761E096
:100CC00082E00E945D0861E772E0CE0101960E9419
:100CD0007D0968E874E0CE0101960E94DB08BC0142
:100CE00084E994E00E949209CE0101960E9478095D
:100CF00062E082E00E945D086EED72E0CE01019636
:100D00000E947D0962E874E0CE0101960E94DB0832
:100D1000BC0184E994E00E949209CE0101960E94F0
:100D2000780926960FB6F894DEBF0FBECDBFDF91CF
:100D3000CF910895CF92DF92EF92FF920F931F937E
:100D4000CF93DF93CDB7DEB72C970FB6F894DEBF05
:100D50000FBECDBF0E94B203C0900001D090010130
:100D6000E0900201F090030100910401109105014F
:100D70002091060130910701C00ED11EE21EF31E24
:100D8000C616D706E806F90608F0AEC063E08EE0A6
:100D90000E945D0881E480937C0080917A008064E9
:100DA00080937A0080917A0086FDFCCF6091780074
:100DB0008091790070E0782B072E000C880B990B3E
:100DC0000E94C6106B017C01AB01BC01CE010196F3
:100DD0000E94050966EE72E0CE0107960E947D0929
:100DE000BE016F5F7F4FCE0107960E94DB0865E76B
:100DF00072E00E94C208BC0189ED93E00E94920952
:100E0000CE0107960E947809CE0101960E947809CA
:100E100020E030E040EA51E4C701B6010E94011130
:100E200020E030EC4FE754E40E94631220E030E011
:100E3000A9010E94F7116B017C01AB01BC01CE013D
:100E400007960E9405091A8219821C821B821E8243
:100E50001D82BE01695F7F4FCE0101960E9461092C
:100E60006BEF72E0CE0101960E94C2080E94A009B9
:100E7000CE0101960E947809CE0107960E9478095A
:100E8000B701A601CE0101960E94050918861F82AE
:100E90001A8619861C861B86BE016F5F7F4FCE01A6
:100EA00007960E9461096BEF72E0CE0107960E94DF
:100EB000C208BC0184E994E00E949209CE01079621
:100EC0000E947809CE0101960E9478090E94B2031F
:100ED00060930401709305018093060190930701CC
:100EE0008DEF92E00E944A082C960FB6F894DEBF70
:100EF0000FBECDBFDF91CF911F910F91FF90EF906B
:100F0000DF90CF900895CF92DF92EF92FF920F93F0
:100F10001F93CF93DF936C017A018B01C0E0D0E087
:100F2000CE15DF0581F0D8016D918D01D601ED91CF
:100F3000FC910190F081E02DC6010995892B11F0FB
:100F40002196EECF7E01C701DF91CF911F910F91C6
:100F5000FF90EF90DF90CF9008956115710579F0C3
:100F6000FB0101900020E9F73197AF01461B570BB9
:100F7000DC01ED91FC910280F381E02D099480E089
:100F800090E008950F931F93CF93DF93EC01888136
:100F90009981009729F02A813B812617370788F429
:100FA0008B016F5F7F4F0E944614009761F0998319
:100FB00088831B830A832C813D81232B11F4FC0140
:100FC000108281E001C080E0DF91CF911F910F91ED
:100FD0000895EF92FF920F931F93CF93DF936115C4
:100FE000710511F480E01CC041155105C1F07B0171
:100FF000EC018C819D818A01080F191FB801CE0177
:101000000E94C207882371F3288139818C819D81D8
:10101000B701820F931F0E941A151D830C8381E074
:10102000DF91CF911F910F91FF90EF900895CF9393
:10103000DF93EC0188819981009711F00E94BD1324
:10104000198218821D821C821B821A82DF91CF9125
:101050000895EF92FF920F931F93CF93DF93EC01CC
:101060007B018A01BA010E94C207811104C0CE012E
:101070000E94170807C01D830C83B70188819981DE
:101080000E941A15CE01DF91CF911F910F91FF9011
:10109000EF900895CF93DF93BC0189ED93E00E9418
:1010A000AD07EC016DE073E089ED93E00E94AD07C0
:1010B0008C0F9D1FDF91CF910895CF93DF93CDB714
:1010C000DEB728970FB6F894DEBF0FBECDBF98E00D
:1010D000EEE0F1E0DE01119601900D929A95E1F7B4
:1010E00090919C04961710F46FEF690FFE013196F2
:1010F000E60FF11DE60FF11D6081680F606840E0AA
:1011000084E994E028960FB6F894DEBF0FBECDBFF9
:10111000DF91CF910C94B305BC0184E994E00C9469
:10112000AD0740E061E084E994E00E94B3058BE301
:101130009FE10197F1F70895CF93DF93282F30E0D7
:10114000F901E256FE4F8491F901E657FE4FD49122
:10115000F901EA58FE4FC491CC2389F081110E9415
:101160002603EC2FF0E0EE0FFF1FE459FE4FA59190
:10117000B4918FB7F894EC91ED2BEC938FBFDF9186
:10118000CF910895CF93DF93EC016115710561F064
:10119000FB0101900020E9F73197AF01461B570B87
:1011A0000E94E907811103C0CE010E941708CE01F9
:1011B000DF91CF910895CF93DF93EC01FB01448140
:1011C0005581608171810E94E907811103C0CE01C0
:1011D0000E941708CE01DF91CF910895CF93DF933E
:1011E000EC016115710559F0FB0101900020E9F750
:1011F0003197AF01461B570B0E94290802C00E947D
:101200001708CE01DF91CF910895EF92FF920F93CF
:101210001F93CF93DF93CDB7DEB7A1970FB6F894A6
:10122000DEBF0FBECDBF7C01CB01BA01F701118239
:10123000108213821282158214828E010F5F1F4F5B
:1012400022E044E00E941B0EBC01C7010E94EE0890
:10125000A1960FB6F894DEBF0FBECDBFDF91CF9140
:101260001F910F91FF90EF9008950F931F93CF93CD
:10127000DF93CDB7DEB762970FB6F894DEBF0FBE2F
:10128000CDBF8C01CB01F801118210821382128232
:10129000158214824AE0BE016F5F7F4F0E943B0EB1
:1012A000BE016F5F7F4FC8010E94EE0862960FB6C5
:1012B000F894DEBF0FBECDBFDF91CF911F910F918C
:1012C0000895CF93DF93EC01FB018617970761F038
:1012D000608171816115710529F0448155810E94F9
:1012E000290802C00E941708CE01DF91CF9108950E
:1012F000FC01808191810C94BD13FC01118210824C
:1013000013821282158214826115710551F0FB015E
:1013100001900020E9F73197AF01461B570B0C9461
:1013200029080895DB0114964D915C9115976D91F4
:101330007C91DC01ED91FC910280F381E02D099418
:10134000CF93DF93BC0189ED93E00E949209EC01F9
:101350006DE073E089ED93E00E94AD078C0F9D1F57
:10136000DF91CF910895CF93DF93CDB7DEB7C2540D
:10137000D1090FB6F894DEBF0FBECDBF789484B507
:10138000826084BD84B5816084BD85B5826085BD81
:1013900085B5816085BD80916E00816080936E000F
:1013A0001092810080918100826080938100809101
:1013B00081008160809381008091800081608093B2
:1013C00080008091B10084608093B1008091B00072
:1013D00081608093B00080917A00846080937A006D
:1013E00080917A00826080937A0080917A00816097
:1013F00080937A0080917A00806880937A001092BE
:10140000C100E091E903F091EA0382E08083E0917A
:10141000E503F091E6031082E091E703F091E80321
:101420008FEC80831092F103E091ED03F091EE03D5
:1014300086E08083E091EB03F091EC038081806192
:101440008083E091EB03F091EC03808188608083DE
:10145000E091EB03F091EC03808180688083E09160
:10146000EB03F091EC0380818F7D808386E491E033
:101470000E944A0810921A0310921903109218033E
:10148000109217031092160381E0809315031092B7
:10149000140382E10E949C0883E10E949C088091D1
:1014A000B9008E7F8093B9008091B9008D7F8093C1
:1014B000B90088E48093B80085E48093BC0084E799
:1014C00092E0909313038093120385E792E0909348
:1014D0001103809310031092990480919E0482302E
:1014E00018F098E09093990480939C0462E370E074
:1014F00080E090E00E94780360919F0484E994E08A
:101500000E94360568EE73E080E090E00E94780368
:1015100060E384E994E00E949A050BE416E4C801B4
:101520000197F1F760E384E994E00E949A05C8010D
:101530000197F1F760E384E994E00E949A0583E55E
:1015400092E00197F1F760E284E994E00E949A0545
:1015500060919904606240E084E994E00E94B305E0
:1015600084E080939A0440E06CE084E994E00E9477
:10157000B3050E94910882E080939B0440E066E0FE
:1015800084E994E00E94B30540E062E084E994E0DD
:101590000E94B3058BE39FE10197F1F70E94910848
:1015A00085E591E00E944A0888E080939F0460E00E
:1015B00084E994E00E94360585E691E00E944A089D
:1015C00060E081E00E945D0886E791E00E948C085F
:1015D00061E081E00E945D0883E891E00E948C0850
:1015E00062E088E00E945D0880E991E00E948C083A
:1015F00063E088E00E945D088DE991E00E948C081C
:1016000068EB7BE080E090E00E9478030E94910804
:1016100060E080E00E945D0886EA91E00E948C080C
:1016200061E083E00E945D0885EB91E00E948C08F8
:1016300062E083E00E945D0885EC91E00E948C08E6
:101640000E942C068823E1F30E94910860E080E06C
:101650000E945D0886EA91E00E948C0861E083E0C8
:101660000E945D0883ED91E00E948C0862E083E0B7
:101670000E945D088DED91E00E948C0863E083E09C
:101680000E945D088CEE91E00E948C080E94D005BB
:101690008823E1F30E94910860E080E00E945D08E9
:1016A00086EA91E00E948C0861E083E00E945D0878
:1016B00084E092E00E948C0862E083E00E945D0872
:1016C00086E192E00E948C080E9400068823E1F3E4
:1016D0000E94910860E080E00E945D0886EA91E047
:1016E0000E948C0861E083E00E945D0883E292E042
:1016F0000E948C0862E083E00E945D088DED91E01D
:101700000E948C0863E083E00E945D088CEE91E00B
:101710000E948C080E94D0058823E1F30E94910862
:101720008CE292E00E944A080E9458060E949A06A3
:1017300063E080E00E945D0883E891E00E948C08ED
:101740000E949A060E942C06882309F456C187E35A
:1017500092E00E944A080E94B20323966CAF7DAFCC
:101760008EAF9FAF2397412C512C3201812C912CAD
:10177000540121E02AAF1EAE1DAE0E9458060E9401
:101780009A060E94D005882309F43AC14DAD5EAD9A
:10179000443651050CF4D2C133C10E949A060E940E
:1017A000B203DC01CB0123962CAD3DAD4EAD5FAD58
:1017B0002397821B930BA40BB50B880E991EAA1EB0
:1017C000BB1E0E94B20323966CAF7DAF8EAF9FAF5E
:1017D0002397C501B40128EE33E040E050E00E94B9
:1017E000E91289019A01C8016CE370E00E94D512E8
:1017F0001B01A801012E000C660B770B4415550543
:101800006605770508F0FFC0041915091DAA1CAA72
:101810001FAA1EAA19AE18AE2AE0AE014F5F5F4F95
:10182000C501B4010E94460EBE016F5F7F4FCE011D
:10183000C4960E94EE08C8ACD9AC33E0C316D104FC
:1018400008F4EFC0C60103979CAF8BAFC816D9064A
:1018500018F4DCAECBAE6C016FE073E0CE018E9677
:101860000E947D09E8ACF9AC4BAD5CAD4E155F054F
:1018700008F4DAC0B8019AE0291631040CF4EFC07C
:10188000CE0101960A3011050CF405C10E943509FC
:10189000B101CE0188960E9435091BA21AA21DA291
:1018A0001CA21FA21EA2BE01685D7F4FCE018296C0
:1018B0000E94610963EB71E0CE0182960E94C2082A
:1018C000BE016F5F7F4F0E94DB0863EB71E00E94F7
:1018D000C208BE01625D7F4F0E94DB08BC0188E840
:1018E00094E00E946109CE0182960E947809CE019F
:1018F00088960E947809CE0101960E94780988E8AE
:1019000094E00E94A0090E94D005811122C10E948A
:10191000000681111EC10E9458060E949A06CE013F
:101920008E960E947809CE01C4960E9478095AAD1D
:10193000511133CF85E00E944F03019709F01DCF6D
:101940000E94B20300911B0310911C0320911D0300
:1019500030911E03DC01CB01801B910BA20BB30B5A
:10196000843F9140A105B10508F407CF8AE492E0D5
:101970000E944A080E94B20360931B0370931C03E9
:1019800080931D0390931E0368E874E082E894E05E
:101990000E94610962E672E088E894E00E94EE0825
:1019A00061E772E0CE0101960E947D0968E874E06B
:1019B000CE0101960E94DB080E94A009CE0101968B
:1019C0000E9478096CE672E0CE0101960E947D09C2
:1019D00062E874E0CE0101960E94DB08BC0189ED4B
:1019E00093E00E949209CE0101960E9478090E941C
:1019F000580689E792E00E944A080E941302A0CE8E
:101A00000E94D00594CFD301C201CC96A11DB11D77
:101A1000481759076A077B0708F4F6CE2C013D01E9
:101A2000F3CE80E090E010CFCE14DF0408F476010E
:101A3000ECA9FDA9EE0DFF1DD08010826CA97DA937
:101A40008BAD9CAD680F791FCE018E960E94EE087B
:101A50008CA99DA9FC01EE0DFF1DD0820BCFCE01FC
:101A600001960A301105A4F10E943509B101CE0199
:101A700082960E9435096AE672E0CE0188960E943D
:101A80007D09BE016E5D7F4FCE0188960E94DB0806
:101A900063EB71E037C00E943509B101CE01889631
:101AA0000E9435091BA21AA21DA21CA21FA21EA2DF
:101AB000BE01685D7F4FCE0182960E94610963EB93
:101AC00071E0CE0182960E94C2086AE672E0F6CE0C
:101AD0000E943509B101CE0182960E9435096AE65D
:101AE00072E0CE0188960E947D09BE016E5D7F4F37
:101AF000CE0188960E94DB0863EB71E00E94C20869
:101B00006AE672E00E94C208BE016F5F7F4F0E94CA
:101B1000DB0863EB71E00E94C208BE01625D7F4F8B
:101B20000E94DB08BC0188E894E00E946109CE01B4
:101B300088960E947809CE018296DBCE0E94B2037D
:101B400023966CAF7DAF8EAF9FAF239741E04AAF36
:101B5000EECE8DAD9EAD8436910534F42DAD3EAD07
:101B60002F5F3F4F3EAF2DAF1AAED5CE82E894E047
:101B70000E94780988E894E00E9478098EE894E051
:101B80000C947809E9EDF3E01382128288EE93E079
:101B9000A0E0B0E084839583A683B7832AE131E097
:101BA0003183208325EC30E03587248724EC30E036
:101BB0003787268720EC30E0318B208B21EC30E01A
:101BC000338B228B22EC30E0358B248B26EC30E0FB
:101BD000378B268B118E128E138E148EE6E7F4E06F
:101BE0001382128284839583A683B7838CE291E06B
:101BF00091838083E4E9F4E0138212828EE391E022
:101C00009183808387E2848384E1818784E0828773
:101C100013866FE073E08EE894E00E947D0962E62F
:101C200072E088E894E00E947D0962E672E082E852
:101C300094E00C947D09EF920F931F93CF93DF9361
:101C4000E80147FD02C034E001C034E1042E000C7D
:101C5000550B57FF03C0519541955109E32E022FB3
:101C6000242FAE010E94820ECE01DF91CF911F91F1
:101C70000F91EF900895BB274A3031F4992322F455
:101C8000BDE2909581959F4F0C94690EBB27FA0198
:101C9000A62F6217710581059105330B30FB66F0A5
:101CA000AA27660F771F881F991FAA1FA21710F077
:101CB000A21B63953850A9F7A05DAA3308F0A95D6F
:101CC000A19336F7B111B1931082CA010C94B410EC
:101CD000BB27FB015527AA27880F991FAA1FA41706
:101CE00010F0A41B83955051B9F7A05DAA3308F0FA
:101CF000A95DA193009779F7B111B1931192CB012E
:101D00000C94B410A9E0B0E0E8E8FEE00C94C51132
:101D10006A01122FB02E2BE3201720F0FF24F3943A
:101D2000F00E02C02CE3F22E0F2D27E0AE014F5F24
:101D30005F4F0E94DC0FBC014981842F8970813084
:101D400031F0E1FC06C0E0FE06C090E205C09DE275
:101D500003C09BE201C090E05E2D507143FF3CC088
:101D6000911102C083E001C084E0811718F4212F93
:101D7000281B01C020E051110BC0F601822F30E278
:101D8000882319F031938150FBCFC20ED11C20E083
:101D9000992329F0D6019C93F60131966F01C60173
:101DA0000396E2FE0AC03EE4D6013C9341E411965C
:101DB0004C93119712963C9306C03EE6F601308391
:101DC00041E641833283FC01322F40E2332309F4A0
:101DD00042C041933150FACF42FF44C0911102C03A
:101DE00083E001C084E0811718F4212F281B01C073
:101DF00020E051110BC0F601822F30E2882319F048
:101E000031938150FBCFC20ED11C20E0992329F0E1
:101E1000D6019C93F60131966F01C6010396E2FE4E
:101E20000BC039E4D6013C933EE411963C931197E4
:101E300036E412963C9307C039E6F60130833EE65D
:101E4000318336E63283FC01322F40E2332319F02E
:101E500041933150FBCFFC01E20FF11D10828EEF58
:101E60009FEFA6C021E030E0911102C020E030E0F9
:101E7000161617061CF4FB01319602C0E1E0F0E0F3
:101E80002E0F3F1FBB2021F0EB2DF0E0319602C05A
:101E9000E0E0F0E02E0F3F1FE12FF0E02E173F07AC
:101EA0001CF4121B212F01C020E08E2D887159F4E3
:101EB000F601822F30E2882319F031938150FBCF55
:101EC000C20ED11C20E0992329F0D6019C93F60183
:101ED00031966F0151110BC0F601822F90E38823D8
:101EE00019F091938150FBCFC20ED11C20E00F2D31
:101EF000060F9A81342F307144FF03C0913309F4E7
:101F00000150101624F4093018F008E001C001E077
:101F1000AB0177FF02C040E050E0FB01E41BF50B92
:101F2000A1E0B0E0AC0FBD1FEA0FFB1F8EE2A82EB0
:101F30004B01801A91080B2D10E0119501951109A4
:101F40004F3FBFEF5B0721F4D601AC9211966D01B4
:101F5000641775072CF08416950614F4818101C06E
:101F600080E3415051093196D60111967D01401709
:101F7000510724F0D6018C936701E2CF64177507EF
:101F800039F4963320F4953319F4311101C081E30B
:101F9000F6018083F701822F90E2882319F0919354
:101FA0008150FBCFF701E20FF11D108280E090E03D
:101FB0002996ECE00C94E111283008F027E0332753
:101FC000DA01990F311D87FD916000966105710559
:101FD00039F432602E5F3D9330E32A95E1F708959E
:101FE0009F3F30F080387105610509F03C5F3C5F30
:101FF0003D93913008F08068911DDF93CF931F933C
:102000000F93FF92EF92192F987F9695E92F96954F
:102010009695E90FFF27EE53FF4F99273327EE24BC
:10202000FF24A701E70105900894079428F4360FD0
:10203000E71EF81E491F511D660F771F881F991F45
:102040000694A1F70590079428F4E70EF81E491F9F
:10205000561FC11D770F881F991F661F0694A1F791
:102060000590079428F4F80E491F561FC71FD11D6D
:10207000880F991F661F771F0694A1F70590079494
:1020800020F4490F561FC71FD81F990F661F771FCF
:10209000881F0694A9F784911095177041F0D69582
:1020A000C79557954795F794E7941A95C1F7E8E6D1
:1020B000F0E0689415901591359165919591059092
:1020C0007FE27395E118F10A430B560BC90BD00957
:1020D000C0F7E10CF11E431F561FC91FD01D7EF42F
:1020E000703311F48A95E6CFE894015030F0080F70
:1020F0000AF40027021708F4202F2395022F7A33C1
:1021000028F079E37D932A95E9F710C07D932A950D
:1021100089F6069497956795379517951794E11862
:10212000F10A430B560BC90BD00998F023957E9109
:1021300073957A3308F070E37C932013B8F77E919F
:1021400070617D9330F0839571E37D9370E32A9500
:10215000E1F71124EF90FF900F911F91CF91DF9144
:10216000992787FD90950895DC01FC01672F7191F7
:102170007723E1F7329704C07C916D93708362916D
:10218000AE17BF07C8F30895E89409C097FB3EF463
:1021900090958095709561957F4F8F4F9F4F9923B4
:1021A000A9F0F92F96E9BB279395F6958795779532
:1021B0006795B795F111F8CFFAF4BB0F11F460FFF2
:1021C0001BC06F5F7F4F8F4F9F4F16C0882311F04A
:1021D00096E911C0772321F09EE8872F762F05C05E
:1021E000662371F096E8862F70E060E02AF09A95F9
:1021F000660F771F881FDAF7880F9695879597F9EE
:1022000008950E9414110C9485110E94771138F0E2
:102210000E947E1120F0952311F00C946E110C9405
:10222000741111240C94B9110E94961170F3959FAA
:10223000C1F3950F50E0551F629FF001729FBB27BD
:10224000F00DB11D639FAA27F00DB11DAA1F649F59
:102250006627B00DA11D661F829F2227B00DA11D0C
:10226000621F739FB00DA11D621F839FA00D611D92
:10227000221F749F3327A00D611D231F849F600DB3
:10228000211D822F762F6A2F11249F5750409AF0DC
:10229000F1F088234AF0EE0FFF1FBB1F661F771F68
:1022A000881F91505040A9F79E3F510580F00C9433
:1022B0006E110C94B9115F3FE4F3983ED4F3869508
:1022C00077956795B795F795E7959F5FC1F7FE2BD3
:1022D000880F911D9695879597F9089597F99F67AF
:1022E00080E870E060E008959FEF80EC089500249E
:1022F0000A941616170618060906089500240A946B
:1023000012161306140605060895092E0394000CF0
:1023100011F4882352F0BB0F40F4BF2B11F460FF7F
:1023200004C06F5F7F4F8F4F9F4F089557FD9058A8
:10233000440F551F59F05F3F71F04795880F97FB89
:10234000991F61F09F3F79F0879508951216130643
:102350001406551FF2CF4695F1DF08C01616170672
:102360001806991FF1CF86957105610508940895A7
:10237000E894BB2766277727CB0197F908952F921A
:102380003F924F925F926F927F928F929F92AF9205
:10239000BF92CF92DF92EF92FF920F931F93CF9352
:1023A000DF93CDB7DEB7CA1BDB0B0FB6F894DEBFE9
:1023B0000FBECDBF09942A88398848885F846E840F
:1023C0007D848C849B84AA84B984C884DF80EE8059
:1023D000FD800C811B81AA81B981CE0FD11D0FB662
:1023E000F894DEBF0FBECDBFED0108955058BB2756
:1023F000AA270E940E120C9485110E94771138F0C2
:102400000E947E1120F039F49F3F19F426F40C94B9
:1024100074110EF4E095E7FB0C946E11E92F0E9405
:10242000961158F3BA17620773078407950720F0CF
:1024300079F4A6F50C94B8110EF4E0950B2EBA2F92
:10244000A02D0B01B90190010C01CA01A0011124BA
:10245000FF27591B99F0593F50F4503E68F11A1666
:10246000F040A22F232F342F4427585FF3CF4695F7
:1024700037952795A795F0405395C9F77EF41F1619
:10248000BA0B620B730B840BBAF09150A1F0FF0FE3
:10249000BB1F661F771F881FC2F70EC0BA0F621FCF
:1024A000731F841F48F4879577956795B795F795BF
:1024B0009E3F08F0B0CF9395880F08F09927EE0F54
:1024C0009795879508950E9477120C9485110E9424
:1024D0007E1158F00E94771140F029F45F3F29F0F7
:1024E0000C946E1151110C94B9110C9474110E943A
:1024F000961168F39923B1F3552391F3951B550B6E
:10250000BB27AA2762177307840738F09F5F5F4FC6
:10251000220F331F441FAA1FA9F335D00E2E3AF005
:10252000E0E832D091505040E695001CCAF72BD01D
:10253000FE2F29D0660F771F881FBB1F261737076E
:102540004807AB07B0E809F0BB0B802DBF01FF27A0
:1025500093585F4F3AF09E3F510578F00C946E11FE
:102560000C94B9115F3FE4F3983ED4F386957795C8
:102570006795B795F7959F5FC9F7880F911D969559
:10258000879597F90895E1E0660F771F881FBB1FB5
:10259000621773078407BA0720F0621B730B840B62
:1025A000BA0BEE1F88F7E095089597FB072E16F4F7
:1025B000009407D077FD09D00E940B1307FC05D0CB
:1025C0003EF4909581959F4F0895709561957F4F4A
:1025D0000895A1E21A2EAA1BBB1BFD010DC0AA1F64
:1025E000BB1FEE1FFF1FA217B307E407F50720F07C
:1025F000A21BB30BE40BF50B661F771F881F991FF7
:102600001A9469F760957095809590959B01AC013F
:10261000BD01CF010895AA1BBB1B51E107C0AA1F32
:10262000BB1FA617B70710F0A61BB70B881F991F73
:102630005A95A9F780959095BC01CD010895EE0FAC
:10264000FF1F0590F491E02D09940F931F93CF93F2
:10265000DF938230910510F482E090E0E091A204D3
:10266000F091A30420E030E0A0E0B0E0309719F151
:10267000408151810281138148175907C8F084179E
:10268000950769F4109731F012960C9312971396F0
:102690001C9327C00093A2041093A30422C0211509
:1026A000310519F04217530718F49A01BD01EF01E3
:1026B000DF01F801DBCF21153105F9F0281B390BBB
:1026C0002430310580F48A819B816115710521F0E8
:1026D000FB019383828304C09093A3048093A2049C
:1026E000FE01329644C0FE01E20FF31F81939193E5
:1026F00022503109398328833AC02091A0043091B7
:10270000A104232B41F420910A0130910B01309355
:10271000A1042093A0042091080130910901211502
:10272000310541F42DB73EB740910C0150910D0198
:10273000241B350BE091A004F091A104E217F307EC
:10274000A0F42E1B3F0B2817390778F0AC014E5F21
:102750005F4F2417350748F04E0F5F1F5093A104B9
:102760004093A0048193919302C0E0E0F0E0CF0198
:10277000DF91CF911F910F910895CF93DF93009731
:1027800009F481C0FC01329713821282A091A20445
:10279000B091A304109781F420813181820F931F9F
:1027A0002091A0043091A1042817390751F5F09326
:1027B000A104E093A00467C0ED0120E030E0CE1753
:1027C000DF0740F44A815B819E0141155105F1F01C
:1027D000EA01F5CFD383C28340815181840F951FD5
:1027E000C817D90759F488819981840F951F0296DB
:1027F000918380838A819B81938382832115310514
:1028000029F4F093A304E093A2043DC0E901FB8303
:10281000EA8349915991C40FD51FEC17FD0761F464
:1028200080819181840F951F0296E90199838883A5
:10283000828193819B838A83E0E0F0E012968D9100
:102840009C911397009719F0FD01DC01F7CF8D9152
:102850009C9111979D012E5F3F4F820F931F2091F6
:10286000A0043091A1042817390769F4309729F49E
:102870001092A3041092A20402C013821282B09399
:10288000A104A093A004DF91CF910895A0E0B0E04F
:10289000ECE4F4E10C94C311EC01009721F4CB01BA
:1028A0000E942513B4C0FC01E60FF71F9C012250C3
:1028B0003109E217F30708F4A8C0D9010D911C9162
:1028C000119706171707B0F00530110508F49BC0E3
:1028D000C80104978617970708F495C0025011099C
:1028E000061B170B019311936D937C93CF010E94EC
:1028F000BD1389C05B01A01AB10A4C01800E911E64
:10290000A091A204B091A304612C712CE12CF12CB4
:10291000109709F446C08D919C911197A815B9059F
:10292000B1F56C0142E0C40ED11CCA14DB0478F18D
:102930004C018A189B08640142E0C40ED11C129617
:10294000BC9012971396AC91B5E0CB16D10440F031
:10295000B282A38391828082D9016D937C9309C056
:102960000E5F1F4F800F911FF90191838083EB2D24
:10297000FA2FE114F10431F0D7011396FC93EE9392
:10298000129741C0F093A304E093A2043CC06816E0
:10299000790608F43C017D0112960D90BC91A02DA2
:1029A000B7CF8091A0049091A10488169906E1F414
:1029B00066167706C8F48091080190910901009786
:1029C00041F48DB79EB740910C0150910D01841BCD
:1029D000950BE817F907C8F4F093A104E093A0045D
:1029E000F901718360830FC0CB010E9425137C0124
:1029F000009759F0A801BE010E941115CE010E9456
:102A0000BD13C70104C0CE0102C080E090E0CDB785
:102A1000DEB7EEE00C94DF1181E090E0F8940C94C6
:102A20002115FB01DC0102C001900D924150504084
:102A3000D8F70895FB01DC0101900D920020E1F729
:102A4000089510E0CAEDD0E004C0FE010E941F13FB
:0C2A50002196CB3DD107C9F7F894FFCFC9
:102A5C00F4010000000000000000A404800000004D
:102A6C0040001400540000000000400183070501E1
:102A7C008D0107021401280100000000CF02A20200
:102A8C00FF0276029A028602770200000000CA0555
:102A9C008307FF02FE0253746172746520417264F5
:102AAC0075696E6F00496E6974204C434420536302
:102ABC007265656E00537461727465204261636B5C
:102ACC006C69676874005A656974204D6573737519
:102ADC006E6700464D542D4B75727066616C7A00B2
:102AEC0044617562656E7468616C6572004D6F64EB
:102AFC00656C6261750046756E6B74696F6E73748C
:102B0C006573743A0042697474652053746172740D
:102B1C00207369650065696E65204D657373756E0C
:102B2C006721005374617274206973740065696E57
:102B3C007361747A62657265697421005765697492
:102B4C006572206D697420576569746572205461D3
:102B5C007374650042697474652053746F7070658A
:102B6C006E2073696500646965204D657373756EBD
:102B7C006721005A69656C20697374005570646133
:102B8C007465204C434400537461727465204D6528
:102B9C007373756E67206E6575005265736574206E
:102BAC0057757264652067656472EFBFBD636B74A3
:102BBC002E0030303A30303A303030004C61737483
:102BCC005F5A656974203D20004D657373756E679F
:102BDC00207775726465206265EFBFBD6E646574A5
:102BEC00005061757365576569746572205775720D
:102BFC0064652067656472EFBFBD636B742E005310
:102C0C00746F702057757264652067656472EFBFCE
:102C1C00BD636B742E0053746172742057757264AB
:102C2C00652067656472EFBFBD636B742E004C61E9
:102C3C007374203D20005370616E6E756E67732047
:102C4C004D657373756E67203A200056005570649D
:102C5C00617465205370616E6E756E67000D0A00AD
:107E0000112484B714BE81FFF0D085E080938100F7
:107E100082E08093C00088E18093C10086E0809377
:107E2000C20080E18093C4008EE0C9D0259A86E02C
:107E300020E33CEF91E0309385002093840096BBD3
:107E4000B09BFECF1D9AA8958150A9F7CC24DD24C4
:107E500088248394B5E0AB2EA1E19A2EF3E0BF2EE7
:107E6000A2D0813461F49FD0082FAFD0023811F036
:107E7000013811F484E001C083E08DD089C08234E0
:107E800011F484E103C0853419F485E0A6D080C0E4
:107E9000853579F488D0E82EFF2485D0082F10E0AE
:107EA000102F00270E291F29000F111F8ED06801E7
:107EB0006FC0863521F484E090D080E0DECF843638
:107EC00009F040C070D06FD0082F6DD080E0C81688
:107ED00080E7D80618F4F601B7BEE895C0E0D1E017
:107EE00062D089930C17E1F7F0E0CF16F0E7DF06D8
:107EF00018F0F601B7BEE89568D007B600FCFDCFD4
:107F0000A601A0E0B1E02C9130E011968C91119780
:107F100090E0982F8827822B932B1296FA010C0160
:107F200087BEE89511244E5F5F4FF1E0A038BF0790
:107F300051F7F601A7BEE89507B600FCFDCF97BE46
:107F4000E89526C08437B1F42ED02DD0F82E2BD052
:107F50003CD0F601EF2C8F010F5F1F4F84911BD097
:107F6000EA94F801C1F70894C11CD11CFA94CF0C13
:107F7000D11C0EC0853739F428D08EE10CD085E9AC
:107F80000AD08FE07ACF813511F488E018D01DD067
:107F900080E101D065CF982F8091C00085FFFCCF94
:107FA0009093C60008958091C00087FFFCCF809118
:107FB000C00084FD01C0A8958091C6000895E0E648
:107FC000F0E098E1908380830895EDDF803219F02E
:107FD00088E0F5DFFFCF84E1DECF1F93182FE3DFCA
:107FE0001150E9F7F2DF1F91089580E0E8DFEE27F6
:047FF000FF270994CA
:027FFE00040479
:0400000300007E007B
:00000001FF